:100000000C9446000C9465000C9465000C946500FB
:100010000C9465000C9465000C9465000C946500CC
:100020000C9465000C9465000C9465000C946500BC
:100030000C9465000C9465000C9465000C946500AC
:100040000C9465000C9465000C9465000C9465009C
:100050000C9465000C9465000C9465000C9465008C
:100060000C9465000C9465000C9465000C9465007C
:100070000C9465000C9465000C9465000C9465006C
:100080000C9465000C9465000C94650011241FBE4F
:10009000CFEFD0E4DEBFCDBF11E0A0E0B1E0ECECEB
:1000A000F6E000E00BBF02C007900D92AE30B10742
:1000B000D9F721E0AEE0B1E001C01D92A531B20751
:1000C000E1F70E94C2010C9464030C940000CF93EA
:1000D000C82F8A3019F48DE00E9467008091C0001B
:1000E00085FFFCCFC093C60080E090E0CF910895DB
:1000F000CF92DF92EF92FF926B017C0160910E0133
:1001000070910F018091100190911101A70196014A
:100110000E94D001882309F458C020E030E0A901F2
:10012000C701B6010E94D001811106C0E1E9F0E0EB
:1001300080818870808305C0E1E9F0E08081836080
:10014000808328E539E344E75FE3C701B6010E94F5
:10015000D00188233CF48FEF9FEF90939900809318
:10016000980027C020E034E244EF56E4C701B6010E
:100170000E94F20218162CF4109299001092980026
:1001800018C020E030E040E053E4C701B6010E940F
:10019000F7029B01AC0160E074E284EF9AE40E94F4
:1001A000D5010E94470261507109709399006093D4
:1001B00098001092950010929400C0920E01D09277
:1001C0000F01E0921001F0921101FF90EF90DF908B
:1001D000CF90089580E4809390008BE0809391000D
:1001E00060E070E0CB010E947800089510929000CA
:1001F0001092910008958091120190911301813025
:10020000910591F040F08230910509F451C00397B7
:1002100009F480C096C081E090E090931301809330
:1002200012010E94EA0098C080911401813069F4A3
:1002300064EA70ED82E893E40E94780082E090E046
:10024000909313018093120187C0823069F46BE7A9
:1002500074ED82E993E40E94780082E090E090934C
:1002600013018093120178C0843069F464EA70ED60
:1002700084EA93E40E94780082E090E09093130176
:100280008093120169C081110CC060E070E0CB0165
:100290000E94780081E090E0909313018093120116
:1002A0005BC083E090E0909313018093120154C0EF
:1002B00080911401813039F482E090E09093130131
:1002C0008093120149C0823039F482E090E090932B
:1002D00013018093120140C0843039F482E090E031
:1002E000909313018093120137C081110CC060E01C
:1002F00070E0CB010E94780081E090E090931301C0
:100300008093120129C083E090E0909313018093C1
:10031000120122C08091140181110CC060E070E0D4
:10032000CB010E94780081E090E0909313018093CC
:10033000120112C083E090E09093130180931201A8
:100340000BC081E090E0909313018093120160E074
:1003500070E0CB010E94780080911201909113010E
:100360008130910519F0039739F0089560E070E04D
:10037000CB010E947800089560E070E0CB010E94FC
:100380007800089511B88FEF82B984B915B810922A
:10039000140180B18095809314010E94FB00F9CF75
:1003A0000E947D0208F481E008950E94E9010C9406
:1003B000B8020E94B10258F00E94AA0240F029F44B
:1003C0005F3F29F00C94A10251110C94EC020C94A3
:1003D000A7020E94C90268F39923B1F3552391F350
:1003E000951B550BBB27AA2762177307840738F0A4
:1003F0009F5F5F4F220F331F441FAA1FA9F335D001
:100400000E2E3AF0E0E832D091505040E695001CB4
:10041000CAF72BD0FE2F29D0660F771F881FBB1F6E
:10042000261737074807AB07B0E809F0BB0B802D4C
:10043000BF01FF2793585F4F3AF09E3F510578F078
:100440000C94A1020C94EC025F3FE4F3983ED4F3C9
:10045000869577956795B795F7959F5FC9F7880F4C
:10046000911D9695879597F90895E1E0660F771F9E
:10047000881FBB1F621773078407BA0720F0621B2F
:10048000730B840BBA0BEE1F88F7E09508950E945A
:100490004E026894B1110C94EC0208950E94D102AE
:1004A00088F09F5798F0B92F9927B751B0F0E1F035
:1004B000660F771F881F991F1AF0BA95C9F714C0E5
:1004C000B13091F00E94EB02B1E008950C94EB0280
:1004D000672F782F8827B85F39F0B93FCCF386951E
:1004E00077956795B395D9F73EF49095809570957B
:1004F00061957F4F8F4F9F4F0895990F0008550FBB
:10050000AA0BE0E8FEEF16161706E807F907C0F099
:1005100012161306E407F50798F0621B730B840BA1
:10052000950B39F40A2661F0232B242B252B21F47B
:1005300008950A2609F4A140A6958FEF811D811D1B
:10054000089597F99F6780E870E060E008959FEF55
:1005500080EC089500240A9416161706180609065A
:10056000089500240A941216130614060506089529
:10057000092E0394000C11F4882352F0BB0F40F4B1
:10058000BF2B11F460FF04C06F5F7F4F8F4F9F4FF1
:10059000089557FD9058440F551F59F05F3F71F073
:1005A0004795880F97FB991F61F09F3F79F08795DA
:1005B0000895121613061406551FF2CF4695F1DF63
:1005C00008C0161617061806991FF1CF86957105F3
:1005D000610508940895E894BB2766277727CB0127
:1005E00097F908950E947D0208F48FEF08950E9404
:1005F0000A030C94B8020E94AA0238F00E94B102C9
:1006000020F0952311F00C94A1020C94A702112460
:100610000C94EC020E94C90270F3959FC1F3950FF0
:1006200050E0551F629FF001729FBB27F00DB11D76
:10063000639FAA27F00DB11DAA1F649F6627B00D06
:10064000A11D661F829F2227B00DA11D621F739FEF
:10065000B00DA11D621F839FA00D611D221F749FFD
:100660003327A00D611D231F849F600D211D822F44
:10067000762F6A2F11249F5750409AF0F1F088236B
:100680004AF0EE0FFF1FBB1F661F771F881F915098
:100690005040A9F79E3F510580F00C94A1020C94A4
:1006A000EC025F3FE4F3983ED4F386957795679527
:1006B000B795F795E7959F5FC1F7FE2B880F911DC2
:0C06C0009695879597F90895F894FFCF60
:0E06CC000000000200000000670000000000B7
:00000001FF
